:020000040800F2
:10000000E03C00209D010008AB200008231A0008F6
:10001000A9200008850700083D270008000000000F
:100020000000000000000000000000006D22000839
:100030008707000800000000AD2000086F220008BC
:10004000B7010008B7010008B7010008B7010008B0
:10005000B7010008B7010008B7010008B7010008A0
:10006000B7010008B7010008B7010008B701000890
:10007000B7010008B7010008B7010008B701000880
:10008000B7010008B7010008B7010008B701000870
:10009000B7010008B7010008B7010008B701000860
:1000A000B7010008B7010008B7010008B701000850
:1000B000B7010008B701000829230008B7010008AC
:1000C000B7010008B7010008B7010008B701000830
:1000D000B7010008B7010008B7010008B701000820
:1000E000B7010008B7010008B7010008B701000810
:1000F000B7010008B7010008B7010008B701000800
:10010000B7010008B7010008B7010008B7010008EF
:10011000B7010008B7010008B7010008B7010008DF
:10012000B7010008B7010008B7010008B7010008CF
:10013000B70100080000000000000000B70100083F
:10014000B7010008B7010008B7010008B7010008AF
:10015000B7010008B7010008B701000831270008FF
:10016000B7010008B7010008B7010008B70100088F
:10017000B7010008B70100080000000000000000FF
:10018000B7010008B7010008DFF80CD000F0E8FA6A
:1001900000480047D1270008E03C0020064880477F
:1001A00006480047FEE7FEE7FEE7FEE7FEE7FEE75C
:1001B000FEE7FEE7FEE7FEE70D23000889010008E1
:1001C0002DE9F05F0546002092469B46884606468C
:1001D000814640241BE0284641464746224600F01F
:1001E00009FA53465A46C01A914110D3114618468F
:1001F000224600F0F0F92D1A67EB01084F4622461F
:100200000120002100F0E7F917EB00094E41201E04
:10021000A4F10104DFDC484631462A464346BDE8E6
:10022000F09FD2B201E000F8012B491EFBD27047CB
:100230000022F6E710B513460A4604461946FFF7B2
:10024000F0FF204610BD2DE9FE4F804681EA0300F5
:10025000C00F0C46009021F0004123F00045B8EBA0
:100260000200A94105D24046214690461C460B4655
:10027000024623F00040104347D0270DC7F30A0081
:10028000C3F30A510290401A019040286BDAC3F37D
:10029000130040F4801B0098924620B10023D2EB5B
:1002A000030A63EB0B0B01985946C0F1400250461C
:1002B00000F091F906460D4650465946019A00F065
:1002C000A9F910EB08006141002487EA115284EA81
:1002D000E7731A4340D0009A62B3019A012A4FEAA9
:1002E000075215DC001B61EB02014FF0004202EAED
:1002F0000752CDE90042001C41F5801132462B46E1
:1003000000F0E0F903B0BDE8F08F40462146F9E780
:10031000001B61EB0201001C41F5801300185B41DA
:100320002018A2F5001747EB030140EAD570B61973
:100330006D4111E06D084FEA360645EAC0754FEA97
:100340000752001B61EB0201001C41F580114908B6
:100350004FEA30000019514132462B4603B0BDE848
:10036000F04F00F0A0B90098012240000023D0EB2C
:10037000020263EBE073009821464FEAE074B8EBA9
:10038000000061EB0401E9E783F000435BE781F0E3
:10039000004158E72DE9FE4F81EA030404F00044D0
:1003A00021F0004100944FF0000B23F0004350EA8D
:1003B00001045ED052EA03045BD0C3F30A54C1F3D4
:1003C0000A552C44A4F2F3340194A0FB0254C1F367
:1003D000130141F48011C3F3130343F4801301FBB1
:1003E000024400FB034E840A970A44EA815447EA18
:1003F0008357A4FB076802958D0A05FB07854FEA22
:10040000932C04FB0C542705029D4FEA065847EA3B
:100410001637B5EB08056EEB070C870E920E47EA10
:10042000811742EA8312A7FB0201B6EB0B0164EBD2
:1004300000042B0D43EA0C335E1844EB1C50DA46E3
:100440005146E7FB0201C5F313044FEA0B3343EABD
:1004500014534FEA0432019C43EA0603A4F10C044E
:100460000294009CCDE900B400F02CF903B0BDE883
:10047000F08F00200146F9E72DE9F04D81EA0304F1
:1004800004F0004B21F0004514464FF0000A23F021
:10049000004150EA050220D054EA01021DD0C5F304
:1004A0000A570246C5F31303C1F31300C1F30A56FA
:1004B00040F4801543F48013A7EB0608101BD646C2
:1004C00008F2FD3873EB050002D308F1010801E0E2
:1004D00092185B41B8F1000F03DA00200146BDE835
:1004E000F08D00204FF48011064684460EE0171B65
:1004F00073EB050705D3121B63EB050306434CEAB8
:10050000010C49084FEA300092185B4150EA01079C
:10051000EDD152EA030012D082EA040083EA050119
:10052000084305D0101BAB4106D20122002306E090
:1005300000224FF0004302E06FF0010253101AEB6B
:1005400006004CEB085110EB0A0041EB0B01BDE833
:10055000F04D00F0A8B80EB5C10F80EAE070084475
:10056000CA07002140F233438DE80E000A460B46CD
:1005700000F0A8F803B000BD00F0004230F00040E9
:100580000AD0C10D01F56071C0F3160042EA0151B5
:10059000C20840071143704700200146704701F030
:1005A000004330B421F0004150EA010206D00A0DA8
:1005B000A2F56072C1F31301002A02DC30BC0020F6
:1005C0007047440F44EAC104C100E01830BC00EB9E
:1005D000C25000F031B8202A04DB203A00FA02F1C0
:1005E000002070479140C2F1200320FA03F3194321
:1005F00090407047202A04DB203A21FA02F00021C3
:10060000704721FA02F3D040C2F120029140084322
:1006100019467047202A06DBCB17203A41FA02F030
:1006200043EAE07306E041FA02F3D040C2F120024F
:1006300091400843194670470029A8BF7047401CE5
:10064000490008BF20F00100704710B4B0FA80FCE8
:1006500000FA0CF050EA010404BF10BC704749B125
:10066000CCF1200421FA04F411FA0CF118BF012195
:1006700021430843A3EB0C01CB1D4FEA00614FEA75
:10068000102042BF002010BC704700EBC350104444
:100690000029A4BF10BC7047401C490008BF20F0CF
:1006A000010010BC704710B5141E73F1000408DA85
:1006B000401C41F1000192185B411A4301D120F026
:1006C000010010BD2DE9F04D92469B4611B1B1FAE3
:1006D00081F202E0B0FA80F220329046FFF77BFF11
:1006E00004460F4640EA0A0041EA0B0153465A46C7
:1006F000084313D0114653EA010019D0C8F1400253
:100700005046FFF777FF05460E465046594642468B
:10071000FFF761FF084305D0012004E02046394679
:10072000BDE8F08D0020054346EAE0762C433743D0
:100730000A986305E40AA0EB08000022FD0A44EAD7
:1007400047540A3002D500200146E9E70105101997
:100750006941DDE9084500196941BDE8F04DA2E7AE
:10076000064C074D06E0E06840F0010394E80700FE
:1007700098471034AC42F6D3FFF70AFD9C280008D6
:10078000BC280008FEE7704772B6FEE72DE9FE437D
:10079000B5EEC00A0025F1EE10FA0E462C4600D246
:1007A0000127B5EEC00AF1EE10FA00DD0027B5EE24
:1007B000C00AF1EE10FA01D1022718E09FED491AA4
:1007C000FDEEC00A7FB397B110EE900A6946404231
:1007D00001F0D4FFF8EEE00A30EEC00A02A920EEE4
:1007E000010ABDEEC00A10EE100A01F0C7FF00209A
:1007F0004FEA0D0818F8001001B3401C0528F9DB7A
:10080000002102A8425CDAB1491C0529FADB2E233B
:100810004FF0090C3022AFB1012F36D12D213170AC
:100820000021C1463BE0FFE7694610EE900A01F067
:10083000A5FFF8EEE00A30EE600ACFE70546DFE7F5
:100840000C46E4E7002103E018F801707754491CD6
:10085000A942F9DB73550021C4F1040303E06F18CA
:100860003744491C7A705F1A002FF8DC214607E0F4
:100870000B1B42182B44334412F8012C1A71491EE9
:100880000029F5DC701980F805C0BDE8FE8300BFC3
:1008900019F8017006EB0108491C88F80170A9429B
:1008A000F6DB771900217B70C4F1040306E000BF7A
:1008B00005EB0108B044491C88F80220A3EB0108AD
:1008C000B8F1000FF4DC214607E00B1B42182B4463
:1008D000334412F8012C5A71491E0029F5DC87F8BF
:1008E00006C0D2E700401C4690F83510022903D01C
:1008F0008021416501207047052180F8351000688E
:10090000016821F0010101600020704770B50446C4
:1009100000F0F0F80546601C02D00448007804445A
:1009200000F0E8F8401BA042FAD370BD8000002020
:100930002DE9F84F00224FF0010803254FF00F0E6C
:100940000B6808FA02F42340A3426ED14E68012ED0
:1009500005D0022E03D0112E01D0122E12D186689E
:100960004FEA420C05FA0CF7BE43CF6807FA0CF7C2
:10097000374387604668A6430C79C4F3001494405B
:1009800034434460C668570005FA07FC8C6826EAC1
:100990000C06BC403443C4604C68022C01D0122CBD
:1009A00013D1D40800EB8404A346D4F82090540754
:1009B0004FEAD46A0EFA0AF629EA06090E6906FA1F
:1009C0000AF646EA0906CBF8206006680C7926EAA2
:1009D0000C0604F00304BC40344304604C68E4009B
:1009E00065D5364C266846F480462660246822F099
:1009F000030604F480440094314C3444A446D4F8F3
:100A000008489607370F0EFA07F6B4432D4EB0424A
:100A100001D1002624E02C4EB04201D101261FE076
:100A20002A4EB04202D102261AE040E0284EB042DF
:100A300001D1032614E0274EB04201D104260FE075
:100A4000254EB04201D105260AE0244EB04201D124
:100A5000062605E0224EB04201D1072600E0082616
:100A6000BE402643CCF808681E4E34684F689C434D
:100A7000FF0300D51C4334601A4C241D26684F68C0
:100A80009E43BF0300D51E432660164E08363468C9
:100A90004F689C43FF0200D51C433460114E0C3656
:100AA00034684F689C43BF0200D51C433460521C1D
:100AB000102AFFF445AFBDE8F88F0000443802402B
:100AC00000300140000002400004024000080240E3
:100AD000000C0240001002400014024000180240C6
:100AE000001C0240003C01400AB1816170470904CA
:100AF000FBE700000148806870470000800000208C
:100B000002488168027811448160704780000020AB
:100B10000B4810B5016841F400710160016841F4AF
:100B200080610160016841F480710160032000F080
:100B30006FF8002000F006F800F024F8002010BD47
:100B4000003C024070B50D4D04464FF47A71287890
:100B5000B1FBF0F00A490968B1FBF0F000F067FC66
:100B600048B9102C07D200222146501E00F030F860
:100B700000206C6070BD012070BD0000800000206E
:100B80008C0000200A4808B5016841F480410160EA
:100B9000006800F4804000900548001F016841F0A3
:100BA00080510160006800F08050009008BD000096
:100BB00044380240002809DB00F01F020121914067
:100BC0004009800000F1E020C0F8001170470000EB
:100BD000F0B40E4B1B680C46C3F30223C3F10705A8
:100BE000042D00D90425191D072901D2002300E096
:100BF000DB1E012606FA05F1491E214099409E4060
:100C0000761E16403143F0BC01F099BD0CED00E0BA
:100C1000064900F0070208684FF6FF03184040EA53
:100C20000220034A10430860704700000CED00E00A
:100C30000000FA052DE9F0470E46050065D0DFF803
:100C40001481D8F80000F7B200F00F00B04207D2CC
:100C500088F80070D8F8000000F00F00B04254D1BE
:100C600028683D4C810712D5400703D5206840F421
:100C7000E05020602878000703D5206840F46040E9
:100C800020602068A96820F0F000084320602878E0
:100C9000C0072DD0304968680839012812D00228D1
:100CA00013D0032811D00968890700292DDA21689B
:100CB00021F0030101432160FFF71CFF814641F24F
:100CC000883A0EE009688903EFE709688901ECE7D3
:100CD000FFF710FFA0EB0901514502D90320BDE841
:100CE000F0872068696800F00C00B0EB810FEFD14D
:100CF000D8F80010404601F00F01B14207D9077043
:100D0000006800F00F00B04201D00120E7E728782A
:100D1000400705D52068E96820F4E05008432060CA
:100D20002878000706D52068296920F4604040EA49
:100D3000C100206000F038F82168084AC1F30311AF
:100D4000515CC8400649086006480068FFF7FAFE93
:100D50000020C4E7003C0240083802408228000816
:100D60008C000020840000200448054900680968C0
:100D7000044AC1F38221515CC84070478C000020B6
:100D800008380240922800080448054900680968AC
:100D9000044AC1F34231515CC84070478C000020C6
:100DA0000838024092280008154810B5006810F075
:100DB0000C02144813D04110042A0FD0082A0ED177
:100DC0000F4C241F2268236802F03F025B0207D504
:100DD0002068C0F38810A0FB010106E0084610BDA2
:100DE0002168C1F38811A1FB00010023FFF7E8F996
:100DF0002168C1F30141491C4900B0FBF1F010BD6D
:100E0000083802400024F4002DE9F84F04006ED0A9
:100E10002078DFF83C93C007A9F104054AD009F116
:100E200004000168C1F38101012908D00068C0F302
:100E3000810002280AD1D9F80000400206D52868AE
:100E4000800337D560680028E1D033E06068B0F5F2
:100E5000803F10D0B0F5A02F286810D020F480304B
:100E60002860286820F4802028606068A8B1FFF717
:100E700041FE06460DE0286840F48030F4E740F477
:100E800080202860F7E700BFFFF734FE801B64284E
:100E900073D828688003F7D50CE0FFF72BFE0646D1
:100EA00005E000BFFFF726FE801B6428F0D8286805
:100EB0008003F7D42078DFF89C8280074FF0000A87
:100EC0003ED5A348001D016811F00C0F08D0006842
:100ED000C0F3810002280BD1D9F80000400207D4EA
:100EE0002868800716D5E068012800D112E02BE1C0
:100EF000E068B8B10120C8F80000FFF7FBFD064626
:100F000005E000BFFFF7F6FD801B0228C0D8286867
:100F10008007F7D52868216920F0F80040EAC10071
:100F200028600DE0C8F800A0FFF7E4FD064604E0E5
:100F3000FFF7E0FD801B02281FD828688007F7D440
:100F40002078000722D5824E83486169703671B1DE
:100F500001210160FFF7CEFD074604E0FFF7CAFD5F
:100F6000C01B022809D830688007F7D50EE0C0F80A
:100F700000A0FFF7BFFD074605E082E0FFF7BAFDDE
:100F8000C01B02287DD830688007F7D4207840073E
:100F900068D5DFF8BCB100270BF13C0BDBF8000093
:100FA000C0000BD4DBF8001041F08051CBF80010EA
:100FB000DBF80000012700F080500090674E306899
:100FC000C00510D4306840F480703060FFF792FDA7
:100FD000009005E0FFF78EFD0099401A022850D8D6
:100FE0003068C005F6D55A4EA0686C3601280FD07F
:100FF0000528306810D020F001003060306820F003
:1010000004003060A068B8B1FFF774FD00900FE0F5
:10101000306840F00100F4E740F004003060F7E78A
:10102000FFF768FD0099411A41F28830814266D885
:1010300030688007F4D50EE0FFF75CFD009007E014
:10104000FFF758FD0099411A41F28830814256D885
:1010500030688007F4D42FB1DBF8001021F0805104
:10106000CBF80010A069C8B33949091D0968C1F35C
:10107000810102294AD00228504607D0C8F86000F2
:1010800000E03CE0FFF736FD04463BE04746C8F889
:101090006000FFF72FFD064605E000BFFFF72AFDC1
:1010A000801B02282BD828688001F7D4D4E90701D7
:1010B0000843A16A2A4A490802EB0141626A41EAEF
:1010C0008211084394F82C1040EA0161C9F800101D
:1010D00001203866FFF70EFD044606E036E000BF4B
:1010E000FFF708FD001B022809D828688001F7D502
:1010F0002CE000BFFFF7FEFC001B022802D90320F2
:10110000BDE8F88F28688001F4D41FE00128F7D0EB
:10111000D9F80000E26900F48001914214D1226AFA
:1011200000F03F0191420FD147F6C071626A014061
:10113000914209D1A26A00F44031914204D1E16A9E
:1011400000F07060884201D00120D9E70020D7E785
:101150000438024000004742800E474200700040C1
:101160000000FFFF70B5040005D00025A56294F8CB
:10117000510010B106E0012070BD84F850502046A7
:1011800000F030F8022084F851002068016821F056
:1011900040010160D4E901010843D4E9031211437D
:1011A000084361690843218B01F400710843E16938
:1011B0000843216A0843A16A084321680860A069BE
:1011C000042101EA1040616A0843216848602068F0
:1011D000C16921F40061C1616565012084F8510095
:1011E000002070BD10B586B0044614216846FFF794
:1011F0001FF813492068884220D112480021026854
:1012000042F480520260006800F4805005900D485E
:101210001438026842F001020260006800F0010028
:101220000590E02000900220CDE901010320039009
:101230000520049069460448FFF77AFB06B010BD0C
:101240000030014044380240000002402DE9F84FD0
:10125000044690F8500000270A9E1D4692468B4691
:101260004FF0010901280ED0012084F85000FFF74B
:1012700041FC804694F85100616801280CD0B1F51A
:10128000827F07D102E00220BDE8F88FA16809B98A
:10129000042801D00227C2E0BBF1000F27D0BAF129
:1012A000000F24D01DB394F85100042802D005206B
:1012B00084F8510000206065C4F838A0E587A58750
:1012C000C4F830B0E586A5862064606420680168B3
:1012D000490603D4016841F040010160E068B0F5BF
:1012E000006F606805D0E8B3012D46D07FE001278C
:1012F00095E008B1012D39D1206B21680088C860C4
:10130000206B801C2063E08E401EE0862EE020686B
:10131000816889070FD5E18E69B1B9F1010F0AD152
:10132000216B0988C160206B801C2063E08E401E09
:10133000E0864FF0000920688168C9070CD0E18F72
:1013400051B1C068A16B0880A06B801CA063E08FC6
:10135000401EE0874FF00109FFF7CCFBA0EB08002F
:10136000B04200E009E001D3701C50D1E08E0028AB
:10137000CDD1E08F0028CAD13FE0206B21680078F2
:101380000873206B401C2063E08E401EE0862EE038
:101390002068816889070FD5E18E69B1B9F1010F25
:1013A0000AD1216B09780173206B401C2063E08E09
:1013B000401EE0864FF0000920688168C9070CD004
:1013C000E18F51B1C068A16B0870A06B401CA06395
:1013D000E08F401EE0874FF00109FFF78BFBA0EB89
:1013E0000800B04202D3701C01D010E07EB1E08E44
:1013F0000028CDD1E08F0028CAD142463146204690
:1014000000F056FE28B101272020606507E0032781
:1014100005E0A06818B92068C168806800900120C4
:1014200084F85100002084F8500038462CE710B5AD
:10143000401EB0F1807F01D3012010BD4FF0E024A9
:1014400060610F21601701F07AF90020A061072088
:101450002061002010BD70477047000070B590F803
:101460003C20012A32D0012480F83C40022280F83E
:101470003D2003685A689D6822F070060A6832436E
:101480005A60134B02689A4214D0B2F1804F11D0C7
:10149000104B9A420ED0104B9A420BD00F4B9A42EF
:1014A00008D00F4B9A4205D00E4B9A4202D00E4BF9
:1014B0009A4204D1496825F080031943916080F86D
:1014C0003D40002180F83C10084670BD022070BDF0
:1014D000000001400004004000080040000C0040F3
:1014E00000040140004001400018004010B5040015
:1014F00003D094F83D0010B107E0012010BD00209A
:1015000084F83C00204600F00DF8022084F83D00ED
:10151000211D206800F00EFF012084F83D0000200E
:1015200010BD000008B500680B49884212D10B4875
:10153000016841F0040101600068002200F004002D
:10154000009011461E20FFF743FBBDE808401E2017
:10155000FFF730BB08BD00000008004040380240E3
:101560000168CA6842F00102CA600068816801F03F
:101570000701062903D0016841F001010160002044
:10158000704770B5044690F83C00012817D001253B
:1015900084F83C50022084F83D002068826822F0E4
:1015A000770222F47F4282600868502830D00DDC38
:1015B00020284DD005DC98B310283BD148E002200C
:1015C00070BD302844D0402834D139E0602828D07C
:1015D000702806D0B0F5805F2CD0B0F5005F29D11F
:1015E0000AE0CB68D1E90121206800F007FF2068FC
:1015F000816841F0770109E0CB68D1E901212068D9
:1016000000F0FCFE2068816841F48041816011E0B7
:10161000CA684968206800F003FF5021206807E08D
:1016200016E0CA684968206800F00BFF6021206856
:1016300000F0EEFE84F83D50002084F83C0070BDC0
:10164000CA684968206800F0EBFE40212068EFE797
:10165000226801461046EBE7704770B50446006803
:1016600001694FF00005C943890715D4C168C94312
:10167000890711D4E91E0161012020772068806963
:101680008007204602D0FFF7E7FF04E000F098F85B
:10169000204600F096F8257720680169C94349077C
:1016A00017D4C168C943490713D46FF0040101611D
:1016B000022020772068806910F4407F204602D005
:1016C000FFF7CAFF04E000F07BF8204600F079F84D
:1016D000257720680169C943090716D4C168C94341
:1016E000090712D46FF008010161042020772068F7
:1016F000C0698007204602D0FFF7AEFF04E000F08B
:101700005FF8204600F05DF8257720680169C9433D
:10171000C90617D4C168C943C90613D46FF01001B4
:101720000161082020772068C06910F4407F2046BE
:1017300002D0FFF791FF04E000F042F8204600F0ED
:1017400040F8257720680169C943C90708D1C168F5
:10175000C943C90704D1891E0161204600F032F84F
:1017600020680169C943090609D4C168C94309064B
:1017700005D46FF0800101612046FFF76CFE206800
:101780000169C943490609D4C168C943490605D45A
:101790006FF040010161204600F028F820680169DF
:1017A000C94389060BD4C168C943890607D46FF0C1
:1017B000200101612046BDE87040FFF74DBE70BDBD
:1017C0007047704700680749884207D10649086892
:1017D000A0F51C52103A02D0401C0860704700204F
:1017E000FBE700000008004014000020704770472D
:1017F00070B5026804461068D168536910F00F0F85
:1018000052D003F0010501F490762E435FD0C20759
:1018100005D0CA0503D5E26B42F00102E26342073C
:1018200005D5DA0703D0E26B42F00202E2638207D9
:1018300005D5DA0703D0E26B42F00402E263020747
:1018400007D501F020022A4303D0E26B42F00802E0
:10185000E263E26B002A33D0800604D5880602D505
:10186000204600F054FE20684069E16BC0F3801010
:10187000090700D428B3204600F03BFE20684169E8
:1018800049061AD5416921F040014161606BA0B160
:101890001B490165606BFFF727F8002810D0606BCB
:1018A000016DBDE870400847830610D58B060ED544
:1018B0002046BDE8704000F02ABE2046FFF797FFA3
:1018C00070BD2046FFF793FF0020E06370BD030664
:1018D00006D50B0604D52046BDE8704000F0F6BEE4
:1018E0004006F3D54806F1D5D168204621F04001E5
:1018F000D160202184F8391000F092F870BD00000A
:10190000E324000870B5040004D094F839000025E1
:1019100010B106E0012070BD84F83850204600F078
:1019200023F8242084F839002068C16821F400518C
:10193000C160204600F036FE2068016921F4904124
:1019400001612068416921F02A0141612068C16874
:1019500041F40051C160E563202084F8390084F827
:101960003A00002070BD000010B586B00446142176
:101970006846FEF75DFC17492068884228D1164862
:101980000021026842F020020260006800F020009E
:10199000059011481438026842F0040202600068A1
:1019A00000F004000590C02000900220CDE9010164
:1019B000032003900820049069460848FEF7B8FF0A
:1019C000002211464720FFF703F94720FFF7F2F8FE
:1019D00006B010BD00140140443802400008024027
:1019E000704790F83930202B18D1A9B1A2B190F8E6
:1019F0003830012B12D001628284C2840021C1637D
:101A0000212280F8392080F838100068C16841F040
:101A10008001C1600020704701207047022070479C
:101A20007047FEE72DE9FC410A4E0024DFF82880CC
:101A30000125A6F111073019CDE900053B5D102203
:101A40004146064800F094FB641C122CF3DBBDE811
:101A5000FC8100006D0000200000024004380020DE
:101A60002DE9F04FDFF818B1DFF8188100242DEDD3
:101A7000088B8FB00DF1280903AE4FF0100A9FEDCF
:101A80003F8AF0EE48AAB0EE48AAF0EE489AB0EECF
:101A9000489AF0EE488AB0EE48BAC4EBC40000257C
:101AA00008EB8007CDF800A0CDE90196364B374A08
:101AB0000121DBF8000000F07BF806EB850090EDDB
:101AC000000A07EB85006D1C80ED000A072DE9DB9D
:101AD0004FF4FA73641C9C42DFDB00204FEA0802DB
:101AE000C0EBC00102EB8101401C91ED000A98425D
:101AF00070EE2AAA91ED010A30EE0AAA91ED020ACF
:101B000070EE299A91ED030A30EE099A91ED040ADC
:101B100070EE288A91ED050A30EE088A91ED060AEA
:101B200030EE0BBADCDB1B489FED190ACAEE800AC7
:101B3000C0ED000ACAEE000A1748C0ED000AC9EE5F
:101B4000800A1648C0ED000AC9EE000A1448C0ED2C
:101B5000000AC8EE800A1348C0ED000AC8EE000A69
:101B60001148C0ED000ACBEE000A1048C0ED000A93
:101B70000FB0BDEC088BBDE8F08F00000000000046
:101B800014000020900000200000024004380020D3
:101B90000000FA4324000020280000202C00002030
:101BA0003000002034000020380000203C000020DD
:101BB0002DE9F0410F462DED0C8B90FBF7F182B033
:101BC0009446DDE9142607FB1100169D1C460028EB
:101BD0007DD10E20CDE900603B232146604600F018
:101BE00093FA308840BA00B200EE100AB8EEC00A8C
:101BF000DFEDB88AB0EE008A20EE280A20EE080A4F
:101C000010EE100AFEF7B8FC9FEDB39B53EC192BB6
:101C1000FEF7C0FBFEF7C3FCB1490860286070887E
:101C200040BA00B200EE100AB8EEC00ADFEDA90A11
:101C300020EE200A20EE080A10EE100AFEF79CFCA7
:101C400053EC192BFEF7A6FBFEF7A9FCA54908608B
:101C50006860B08840BA00B200EE100AB8EEC00A60
:101C6000DFED9C0A20EE200A20EE080A10EE100A92
:101C7000FEF782FC53EC192BFEF78CFBFEF78FFC72
:101C800099490860A860F08840BA00B2FEF763FC8A
:101C90009FED961B53EC112BFEF7EEFB9FED951B72
:101CA00053EC112BFEF7CFFAFEF779FC934908604D
:101CB000E860308940BA00B200EE100AB8EEC00AFF
:101CC000DFED840A20EE200A9FED8D9A00E0FBE014
:101CD00020EE090A8B488D4CDFF8348280ED000A33
:101CE000894885ED040A0068DFED8A9A9FED8AAB8A
:101CF0009FED8BBB9FED8CCA9FED8C8A012801D094
:101D0000C8B33BE0D4ED000A10EE900A404503DB77
:101D100070EEC80AC4ED000AF5EEC00AF1EE10FA42
:101D200003D270EE880AC4ED000A8148D0ED000AA3
:101D300070EE600A00EE107AB8EEC00A60EE800A1B
:101D400080EEA90A10EE100AFEF716FC53EC1A2BCF
:101D5000FEF792FB53EC1B2BFEF71CFB41EC1D0B1B
:101D60002068FEF709FC53EC1D2BFEF76CFAFEF71A
:101D700016FC206002E0FFE784ED00CA70896F4C1A
:101D800040BA00B200EE100A6A48B8EEC00A20EE6F
:101D9000280A20EE090A80ED000A674885ED050A49
:101DA0000068012801D0C8B33BE0D4ED000A10EE72
:101DB000900A404503DB70EEC80AC4ED000AF5EE58
:101DC000C00AF1EE10FA03D270EE880AC4ED000AE0
:101DD0005B48D0ED000A70EE600A00EE107AB8EEB3
:101DE000C00A60EE800A80EEA90A10EE100AFEF723
:101DF000C3FB53EC1A2BFEF73FFB53EC1B2BFEF7F8
:101E0000C9FA41EC1D0B2068FEF7B6FB53EC1D2B05
:101E1000FEF719FAFEF7C3FB206002E0FFE784ED4E
:101E200000CAB089494C40BA00B200EE100A4548D9
:101E3000B8EEC00A20EE280A20EE090A80ED000A5A
:101E4000414885ED060A0068012801D0C8B33BE08F
:101E5000D4ED000A10EE900A404503DB70EEC80A8C
:101E6000C4ED000AF5EEC00AF1EE10FA03D270EEEE
:101E7000880AC4ED000A3648D0ED000A70EE600A08
:101E800000EE107AB8EEC00A60EE800A80EEA90A71
:101E900010EE100AFEF770FB53EC1A2BFEF7ECFA6B
:101EA00053EC1B2BFEF776FA41EC180B2068FEF77B
:101EB00063FB53EC182BFEF7C6F9FEF770FB2060AE
:101EC00002E0FFE784ED00CA02B02846BDEC0C8BAF
:101ED000BDE8F0810000003808AC1C5A649B234028
:101EE000400000204400002048000020CDCCCCCC95
:101EF000CC6C744000000000000039404C00002011
:101F000000007A4350000020000000201C00002048
:101F10000000B44300007A44242D4454FB210940BE
:101F20000000000000806640000000000000B44394
:101F30003400002054000020040000202000002075
:101F40003800002058000020080000201000002069
:101F50003C00002030B587B014216846FEF768F9D0
:101F600015480024016841F080010160016801F01A
:101F700080010591016841F001010160016801F0F3
:101F800001010591016841F00401016000680B4DF9
:101F900000F004000590012210212846FEF7A4FD60
:101FA00001211020CDE90214CDE90001694628463F
:101FB000FEF7BEFC07B030BD3038024000000240E2
:101FC000104810B50E4901604FF482714160002144
:101FD0008160C1604FF400720161C0E905121822EE
:101FE000C0E90721416281620A21C162FFF7BAF8A4
:101FF000002803D0BDE81040FEF7C6BB10BD0000AE
:10200000003001400438002010B586B00024174885
:10201000009401940294039404941349059401607C
:102020005321C0E9011440F2E731C0E9031484618F
:10203000FFF75CFA08B1FEF7A7FB4FF48050009061
:1020400069460A48FFF79DFA08B1FEF79DFB049424
:1020500004A906480594FFF701FA002801D0FEF70D
:1020600093FB06B010BD0000000800405C38002063
:102070000C4810B50A4901604FF416514160002127
:1020800081600C22C160C0E904128161C161FFF767
:1020900039FC002803D0BDE81040FEF775BB10BD29
:1020A000001401409C380020FEE7FEE77047000066
:1020B00038B504461248134B0068B0FBF3F04FF4F8
:1020C0007A73584300906068B0F5827F0DD10B465B
:1020D000009200228021204600F07EF870B1606DF1
:1020E00040F020006065032038BD009830B1401EEC
:1020F000009020688068C0430006F6D5002038BDF7
:102100008C00002000366E012DE9FF4385B0894622
:102110000646DDE91057154900208DF80C00D1E97D
:102120000001CDE901019DF82000904640F08000BB
:102130008DF82000002241464846FEF7D5FC0A24CF
:10214000012303AA08A930460094FFF77FF8BBB229
:102150002A4601A930460094FFF778F8012241464B
:102160004846FEF7C1FC09B0BDE8F08374280008BA
:102170002DE9FF4385B089460646DDE9105715492C
:1021800000208DF80C00D1E90201CDE901019DF894
:102190002000904620F080008DF82000002241466B
:1021A0004846FEF7A1FC0A24012303AA08A93046E9
:1021B0000094FFF74BF8BBB201AA294630460094C1
:1021C000FFF744F8012241464846FEF78DFC09B06E
:1021D000BDE8F083742800082DE9F0411D4617463C
:1021E0000E460446DDF8188008E0681C06D0FEF7AD
:1021F00081FCA0EB0800A8420BD255B12068806892
:1022000036EA000030D00020B842EED10020BDE810
:10221000F0812068416821F0E00141606068B0F51C
:10222000827F0BD1A068B0F5004F02D0B0F5806F6F
:1022300004D12068016821F040010160A06AB0F576
:10224000005F09D12068016821F400510160206815
:10225000016841F400510160012084F85100002020
:1022600084F850000320D2E70120CDE77047FEF745
:1022700047BC000030B593B030216846FDF7D8FF69
:1022800014210CA8FDF7D4FF1E480025016841F079
:1022900080510160006800F0805011901A48016878
:1022A00041F4804101600068022400F480401190F4
:1022B00001200090000401908001CDE90640082033
:1022C00008904FF4A870CDE9090404200B906846EB
:1022D000FEF79AFD08B172B6FEE70CA90F2081E85F
:1022E00031004FF4A0500F904FF480501090052112
:1022F0000CA8FEF79FFC002801D072B6FEE713B0D1
:1023000030BD0000403802400070004005480168C0
:1023100041F47001016003494FF0006080390860AA
:102320007047000088ED00E00148FFF796B9000013
:102330005C380020F0B50268254C264D264E274F0C
:10234000274B4FF0804CA04209D0604507D0A842EF
:1023500005D0B04203D0B84201D0984204D122F057
:10236000700E4A6842EA0E02A0421BD0604519D0A6
:10237000A84217D0B04215D0B84213D0984211D01D
:10238000184DA8420ED0184DA8420BD0174DA842A8
:1023900008D0174DA84205D0164DA84202D0164DC0
:1023A000A84203D122F44075CA682A434D6922F03D
:1023B00080022A4302608A68C2620A688262A0427E
:1023C00001D0984201D10969016301214161F0BD49
:1023D000000001400004004000080040000C0040E4
:1023E0000004014000400140004401400048014019
:1023F00000180040001C00400020004010B5846818
:1024000042EA032224F47F440A432243826010BD3F
:10241000826822F070020A4342F00701816070472F
:1024200010B5036A046A24F001040462846924F08C
:10243000F00444EA021423F00A020A4384610262AF
:1024400010BD10B5036A23F0100303628369046AA8
:1024500023F4704343EA023224F0A00343EA01115B
:102460008261016210BD2DE9FF4F85B000259846BD
:1024700092468B462E46E946139F1CE01298002494
:1024800000EB8600694690ED000A1420FEF77EF905
:10249000002049460A5C1AB1401C0C28FADB08E00F
:1024A0000446002003E00A5C4319401CFA54A04291
:1024B000F9DB2544761C4645E0DB9AFBFBF20D2058
:1024C000785579190A2048700BFB12A0002805D115
:1024D000AD1CAAB239460598FFF783FA09B0BDE8EA
:1024E000F08F10B5806B0021C185C184FFF77FF9A3
:1024F00010BD0168CA6822F49072CA6001684A6916
:1025000022F001024A61202180F83A10704710B58C
:1025100090F83A10222901D0022010BD8168B1F54F
:10252000805F11D00169002901681FD0496801F05E
:102530007F03816A4A1C82620B70C18D491E0904A7
:10254000090CC18518D02BE00269816A002A026853
:10255000526805D0D2B20A80816A491C8162ECE7D8
:10256000C2F308020A80816A891CF7E74A68816A17
:102570004B1C83620A70E0E70168CA6822F02002FF
:10258000CA600168CA6822F48072CA6001684A6938
:1025900022F001024A61202180F83A10FFF720FA68
:1025A000002010BD2DE9F041044600680169E26891
:1025B00021F44051114301612169A068E269084397
:1025C0006169114308432168CA6849F20C639A4360
:1025D0000243CA6020684169A26921F44071114335
:1025E0004161E069192764253226B0F5004F354A6C
:1025F000354920684FF0000806D0884201D090424B
:1026000036D1FEF7C1FB35E0884201D0904202D1BD
:10261000FEF7BAFB01E0FEF7A7FB61684A18A0FBD2
:10262000070148EB0803FDF7CBFD0146B0FBF5F0D1
:102630000201B1FBF5F06FF01803584301EB800085
:1026400006EBC000B0FBF5F000F0F80002EB400232
:10265000B1FBF5F0584301EB800006EBC000B0FB86
:10266000F5F000F00700216810448860BDE8F081B3
:10267000FEF77AFB61688B0F8A00A0FB0701FDF76C
:102680009FFD0146B0FBF5F06FF01802504301EBDF
:10269000800006EB0010B0FBF5F000F0F002B1FB9B
:1026A000F5F002EB0012B1FBF5F06FF018035843A0
:1026B00001EB800006EB0010B0FBF5F000F00F001E
:1026C000D1E70000001401400010014090F83910DB
:1026D000212901D0022070478168B1F5805F016A2D
:1026E0000BD04A1C0262026809785160C18C491EF5
:1026F0000904090CC1840ED017E009880268C1F3EF
:102700000801516001690029016A02D0491C016277
:10271000ECE7891CFBE70168CA6822F08002CA6006
:102720000068C16841F04001C160002070470000AE
:102730000148FFF75DB800009C380020FEE709075C
:10274000090E002804DB00F1E02080F80014704737
:1027500000F00F0000F1E02080F8141D704702E047
:1027600008C8121F08C1002AFAD17047704700201C
:1027700001E001C1121F002AFBD17047F0B500250E
:102780000A462E4600281ED006DA4FF02D0313709D
:1027900001F10102C0F1000042F210744FF00A078B
:1027A00090FBF4F353EA050C06D003F1300502F870
:1027B000015B03FB1400012594FBF7F4002CEFDC14
:1027C00016700846F0BD302010704A1CF8E7000073
:1027D0000EB5FEF79DF9FFF74DFDFFF7BBFBFFF7C9
:1027E000EFFBFFF711FCFFF743FC1C48FEF7B8FEB8
:1027F0001B4C102221461B48FFF714F9A3461B4E21
:10280000194C4FF0010A4FF01008A6F1100904F11D
:10281000100506F11C07606828B9FFF721F9C4F814
:1028200000A0C4F804A0CDF80080CDE901965B4675
:102830000C4A0221E068FFF7BBF994ED020A01237C
:1028400085ED000ACDE9005702210948E268FFF74B
:102850000AFE3220FEF75AF8DDE700005C3800205F
:1028600000000240043800200800002050370020FB
:102870009C380020FF00000000000000FF00000066
:102880000000000000000000000001020304060731
:10289000080900000000010203040000BC28000831
:1028A00000000020900000005E2700084C2900086E
:1028B00090000020503C00006E270008000000003F
:1028C0000000000000000000000000000000000008
:1028D00000000000000000000000000000000000F8
:1028E00000000000000000000000000000000000E8
:1028F00000000000000000000000000000000000D8
:1029000000000000000000000000000000000000C7
:102910000000000000000000191A1B1C1D1E2021D1
:102920002223373868696A6B6C00010000000000E0
:102930000000000000000200000000000100000094
:0C29400010000000000000000024F40063
:040000050800018965
:00000001FF
